:020000040800F2
:10000000801A002001010008732A00084B23000811
:10001000712A000891010008552F00080000000017
:10002000000000000000000000000000FB2B0008A2
:10003000C901000800000000F92B0008FD2B000892
:100040001B0100081B0100081B0100081B01000820
:100050001B0100081B0100081B0100081B01000810
:100060001B0100081B0100081B0100081B01000800
:100070001B0100081B0100081B0100081B010008F0
:10008000950100081B0100081B0100081B01000866
:100090001B0100081B0100081B0100081B010008D0
:1000A0001B010008452C00081B0100081B0100086B
:1000B0004D2C00081B0100081B0100084D230008FF
:1000C0001B0100081B0100081B0100081B010008A0
:1000D0001B010008D52E00081B0100081B010008A9
:1000E0001B0100081B0100081B010008DFF80CD0F1
:1000F00000F03CF800480047B52F0008801A0020A7
:100100000648804706480047FEE7FEE7FEE7FEE7B1
:10011000FEE7FEE7FEE7FEE7FEE7FEE7012C00084C
:10012000ED00000840EA01039B0703D009E008C97D
:10013000121F08C0042AFAD203E011F8013B00F8AC
:10014000013B521EF9D27047D2B201E000F8012BF8
:10015000491EFBD270470022F6E710B513460A4647
:1001600004461946FFF7F0FF204610BD064C074D28
:1001700006E0E06840F0010394E807009847103477
:10018000AC42F6D3FFF7B6FF4036000860360008F1
:10019000FEE700000148406B00F080B82015002009
:1001A00010B5D0E90FCE012404FA0EF4CCF80440C7
:1001B0000468636040681028084608BF1046A060C5
:1001C00008BF0A46E26010BD704790F8211002296E
:1001D00012D1016801230A6822F00E020A600A683F
:1001E00022F001020A60D0E90F1203FA02F24A601B
:1001F000002180F8213002E00421816301210022E6
:1002000080F820200846704780B590F82110022918
:100210001DD103684FF0010C196821F00E0119601F
:10022000196821F001011960664A67498B4212D0B2
:1002300066498B4211D066498B4210D065498B428A
:1002400010D065498B4210D14FF4803115E0042164
:10025000816301211BE001210FE010210DE04FF42B
:1002600080710AE04FF4805107E002F1680E4FF010
:100270008071734508BF4FF480111160002180F830
:1002800021C080F82010426B0AB190470021084637
:1002900080BD00BF90F8210070470000F0B5D0E9A4
:1002A0000F311C6802681568464F15F0040F1EBF19
:1002B00004268E4016EA040619D0116811F0200FAA
:1002C00002BF116821F0040111603F498A4259D0F0
:1002D0003E498A4245D03E498A4244D03D498A42FD
:1002E00044D03D498A4244D14FF480214BE0AE07CF
:1002F00020D502268E4026401CD0116811F0200F18
:1003000006D1116821F00A011160012180F8211045
:100310002D498A423AD02D498A4239D02C498A4205
:1003200038D02C498A4238D02B498A4238D14FF4F0
:1003300000313DE02F0744D508278F40274008BFF4
:10034000F0BD176827F00E071760012202FA01F1CD
:1003500059600021826380F8212080F82010016B11
:100360002BE040210FE04FF480610CE04FF480411E
:1003700009E007F168034FF080619A4208BF4FF42B
:10038000800100E004213960C16A16E002210FE01B
:1003900020210DE04FF400710AE04FF4005107E016
:1003A00007F168034FF000719A4208BF4FF4001143
:1003B0003960002180F82010816A11B1BDE8F04059
:1003C0000847F0BD04000240080002401C00024043
:1003D0003000024044000240580002400146012023
:1003E000002908BF7047B0B50A68174B02EB030C31
:1003F0001423BCFBF3F39B000B64144BCB6302236D
:1004000081F8213043F6F073D2F800C02CEA030CD7
:10041000D1E9013ED1E9034543EA0C0343EA0E0367
:1004200023432B434D692B438D692B43CD692B43CC
:10043000136000228A6381F8210081F820200020C7
:10044000BDE8B040704700BFF8FFFDBF00000240AC
:1004500010B5044694F82000012820D0012084F82B
:10046000200094F82100012816D1022084F82100F0
:100470000020A063D4F800C0DCF8000020F00100E8
:10048000CCF800002046FFF78BFE2068E26A016886
:100490003AB141F00E010AE0002084F82000022069
:1004A0000BE021F004010160016841F00A010160E4
:1004B000016841F0010101600020C0B210BD0000E0
:1004C0002DE9FE4F614A04234FF0000B4FF0010C61
:1004D0004FF00F0E4FF0000A4FF00008904200F16D
:1004E000140208BF0323019200930A6832FA08F34A
:1004F00008BFBDE8FE8F0CFA08F73A4200F0A18071
:100500004A68032A16D9112A26D0122A28D0504B1D
:100510009A4213D04F4B9A421CBF4F4B9A420DD078
:100520004E4B9A421CBF4E4B9A4207D04D4B9A42BB
:1005300004D022E0DFE802F002181B1F8A6842B1F3
:10054000012A019A4FF0080A08BF00F11002176053
:1005500013E04FF0040A10E0CA6802F1040A0CE04C
:10056000CA6802F10C0A08E0D1F80CA005E0CA68DC
:1005700002F1080A01E04FF0000AB8F1080F024644
:10058000454628BF04321368374C28BF2544AE00C7
:100590000EFA06F50AFA06F6AB4333431360CA793E
:1005A000D2064ED5314A4FEA98060BF00C090EFAE6
:1005B00009F5136843F001031360126802F00102A9
:1005C0000292029B2A4CA4F57E7353F8262022EA5D
:1005D000050C284A90420AD0274A90420AD0274A5E
:1005E000DDF800E0904208BF4FF0020E04E04FF04B
:1005F000000E01E04FF0010E0EFA09F24FF00F0E5F
:1006000042EA0C024FF0010C43F826204A681C4BCA
:10061000A66812F4801F0CBFBE433E43A66096023C
:100620001E6854BFBE433E431E609303636854BFBD
:10063000BB433B43D2036360226854BFBA433A438F
:1006400022600BF1040B08F101084EE70014014091
:1006500000001110000012100000211000002210F4
:100660000000311000003210F8FFFF3F1810024068
:100670000004014000080140000C0140001001404E
:100680000C040140002A08BF090401617047000002
:1006900001488068704700BF040000207047704721
:1006A000F8B50746D7F800E0DEF80420F96A97F8B5
:1006B0003E3097F83D00402B18BF102B0DD1DEF8CF
:1006C0001850DEF8146016F0010F38D1B1F12A4F3E
:1006D00018BFB1F52A0F37D1F8BD396C00290CBF0E
:1006E000DEF818600026DEF8143012F4007518BF2A
:1006F00013F002015BD0386C08B1DEF8186097F88F
:100700003D0000F0280028287BD1DEF8040016F018
:10071000800F20F48060CEF8040007F1180008BFB5
:1007200007F10C000288002087F83C00012020EA35
:100730009601384601B0BDE8F040FFF7B0BF910523
:100740002FD44FF0010C0EE012F400714FF00104B1
:1007500084EA512C18BF16F0080104D0786CC0B29E
:10076000CEF81000ADE0BCF1000F56D116F002013A
:1007700053D097F83E10F86A3A6B97F83D30222B29
:1007800005D13B6D402908BF002B40F0548100206B
:100790000090DEF814000090DEF818000090009839
:1007A000F8BDF86AB0F52A0F66D1012069E0002D86
:1007B00000F09A8013F0100100F0968097F83D50F9
:1007C000DEF8040020F4E060CEF804000020009081
:1007D000DEF814000090DEF8000040F00100CEF8D2
:1007E00000000098DEF8000020F48060CEF80000E1
:1007F000DEF8040010F4006F40F0F68007F12A06DE
:10080000E7E100200090DEF814100091DEF81810E7
:100810000091009987F83C00F8BDDEF804106C07E1
:1008200001F4006100F1938000297FF455AF500579
:1008300040F1848106F04400402840F07F8197F821
:100840003D0022287FF448AF788D0428C0F05B82F9
:10085000DEF81000796A0870786A01307862788D65
:1008600001387885788D03287FF436AF3868416881
:1008700021F480614160F8BDF86AB0F12A4F01D1DE
:100880000820F86297F83E0040280AD1386D796C4C
:1008900001F0FE01002818BF41F00101CEF8101050
:1008A000F8BD3869B0F5804F40F08D8097F83D0075
:1008B000796C01F0FE01212818BF41F00101CEF84A
:1008C0001010786B08B1806A38B9B86B00283FF413
:1008D00003AF806A00283FF4FFAEDEF8040040F466
:1008E0000060CEF80400F8BD40F00800292840F070
:1008F000BC80500540F1E48003F08400802840F083
:10090000DF8097F83D00798D00293FF4E5AE796AE4
:10091000292811F8012BCEF810207962798DA1F1E8
:1009200001017985798D08BF00297FF4D5AEDEF805
:10093000040020F48060CEF80400212038632820D1
:1009400087F83D003846BDE8F84000F0EABD0029D0
:100950007FF4C2AE510540F1068106F08401802982
:1009600040F0018197F83D2097F83E10F86A3B8DE2
:10097000002B40F09C81212A40F09981DEF8041080
:1009800010F5803F21F4E061CEF8041004D008286F
:1009900018BF202840F01082DEF80000202140F42B
:1009A0000070CEF800000020386387F83D1097F8FB
:1009B0003E1087F83E00402940F006823846BDE8E8
:1009C000F84000F0BFBB386D002800F08A80386D19
:1009D00001287FF481AE786C062101EAD01040F046
:1009E000F100CEF81000F8BD45F008002A2840F0CC
:1009F000D080B86B07F12A06016849687985798D3E
:100A000019B1396C41F004013964DEF8041021F4A5
:100A10000061CEF80410FFF73DFC012800F0D980FA
:100A2000B86BDFF89C154163FFF7EEFB002800F080
:100A3000D080B86BCBE0396D00295BD13969B1F555
:100A4000404F57D100200090DEF814000090DEF8EF
:100A5000180000900098DEF8000040F48070CEF896
:100A60000000386D01303865F8BD500540F10A814D
:100A700003F04400402840F0058197F83D00798D4F
:100A800000293FF429AEDEF810107A6A2A28117086
:100A9000796A01F101017962798DA1F1010179850C
:100AA000798D08BF00297FF417AE3868416821F4BA
:100AB0008061416022203863282087F83D00DCE017
:100AC000002D3FF409AE13F0040008BFF8BD788D87
:100AD00000283FF401AE786A10F8011BCEF8101020
:100AE000E0E0786C062101EAD01040F0F000CEF88A
:100AF0001000F8BD798D002900F0A381798D0129BE
:100B000040F0E580202818BF082800F0948110F5F7
:100B1000803F40F08C81DEF8000020F48060CEF849
:100B20000000DEF8040010F4006F00F08A81DEF8A7
:100B3000000020F48060CEF80000C3E106F004005D
:100B4000012181EA900050EA0C007FF4C5ADF86AFB
:100B5000798D042940F01381DEF8040020F48060D0
:100B6000CEF8040098E006F00401012282EA910127
:100B700051EA0C017FF4B0AD212840F01581F86AEC
:100B800097F83D1021297FF4A7AD798D0029A2D1D6
:100B9000F4E6786B07F12A06016849687985798D52
:100BA00019B1396C41F004013964DEF8041021F404
:100BB0000061CEF80410FFF76DFB012809D0786BB7
:100BC000DFF8FC134163FFF71FFB10B1786B416B3B
:100BD0008847308808B33868416911F0040F09D09C
:100BE0000069796A0870786A013078623088013863
:100BF00030803868416911F0400F08D00069796A87
:100C00000870786A01307862308801383080308826
:100C100018B1386C40F004003864386C20B13846A4
:100C2000BDE8F84001F0A2BC2A2D07D100203863AE
:100C3000282087F83D00384600F072FC97F83D0008
:100C400028280DD1DF482021F8620020386387F87A
:100C50003D1087F83E003846BDE8F84000F06EBA17
:100C6000386B222D18BF22287FF436AD00202021BA
:100C7000386387F83D1087F83E003846BDE8F840F5
:100C800000F04EBC002D3FF427AD13F004001CBF54
:100C9000788D00283FF420ADDEF81000796A0870E6
:100CA000786A01307862788D01387885F8BD212A1C
:100CB00004D0222A08BF40297FF40EAD788D002889
:100CC00056D097F83E0040287FF405AF6FE07A8D4C
:100CD000DEF80010022A7CD1102800F2FD80B64B0D
:100CE000012282401A4200F0F78041F48061CEF880
:100CF000001000210091DEF814100091DEF81810A9
:100D000000910099FBE0F96A40F0010001282FD121
:100D100002292DD0002046F2A8110090A7480068B3
:100D2000B0FBF1F000EB80000090009801380090DB
:100D30000098002800F09580DEF8000010F4007F95
:100D4000F3D1DEF8000020F48060CEF80000DEF879
:100D5000040020F4E060CEF80400DEF81000796AA8
:100D60000870786A01307862788D0138788509E1F9
:100D7000DEF8040020F48060CEF80400F8BD798D20
:100D8000032941D1DEF80410022821F48061CEF855
:100D9000041018BF04283FF47FAFDEF8000020F4F1
:100DA0008060CEF8000077E7402B7FF495AC3846A2
:100DB000BDE8F84001F0A6BC11203863002087F898
:100DC0003E00202087F83D003846BDE8F84000F09E
:100DD000B7B941F48061CEF80010DEF8041011F4C8
:100DE000006F6FD0411E1F2900F2A080012202FA7D
:100DF00001F1704A114200F09980DEF8040040F4DD
:100E00008050CEF804005DE0798D02297FF444AF74
:100E1000102807D0022818BF042800F0908001286D
:100E200040F09280DEF8000020F4806090E001281D
:100E300037D0122A35D1DEF8000020F48060CEF8D9
:100E4000000000200090DEF814000090DEF818008A
:100E500000900098DEF8000040F40070CEF800002A
:100E600061E0386C40F020003864DEF8040020F4C3
:100E7000E060CEF80400DEF81000796A0870786A45
:100E800001307862788D01387885202087F83D0020
:100E9000002087F83E00384601B0BDE8F04000F081
:100EA00093B8DEF80010022841F48062134618BFA0
:100EB00021F48063042808BF1346102808BF134696
:100EC000CEF8003000200090DEF814000090DEF82C
:100ED00018000090009826E041F40061CEF8001060
:100EE00000210091DEF814100091DEF81810009136
:100EF0000099DEF8001021F48061CEF80010DEF8D1
:100F0000041011F4006F0ED0411E1F2913D80122C6
:100F100002FA01F1274A11420DD0DEF8040040F434
:100F20008050CEF8040000203865F8BD10F5803FF1
:100F30003FF463AFC6E710F5803FEED0F3E7DEF88D
:100F4000000040F4806003E0DEF8000040F4007030
:100F5000CEF80000DEF81000796A0870786A411C4B
:100F60007962798D01397985396809694170786AC2
:100F700001307862788D013878853868416821F4CD
:100F800040714160202087F83D00002097F83E1016
:100F900087F83E00402905D138633846BDE8F8405F
:100FA00000F0CFB8122038633846BDE8F84000F0B2
:100FB000C6B800BF8180008014000100140000202A
:100FC000592300080000FFFF70470000B0B5044639
:100FD0002CB394F83D0028B9002084F83C0020464A
:100FE00000F030FA242084F83D002068016821F0E8
:100FF00001010160016841F400410160016821F4D0
:101000000041016000F0ACFB65684849484A8D42E8
:101010003CBF48F28042C0F21E02904201D2012041
:10102000B0BD4449B0FBF1F2216801384B6823F0B0
:101030003F0313434B600B6A23F03F0C3B4B9D4235
:1010400021BF4FF496735A434FF47A73B2FBF3F215
:1010500001324CF6FF7342EA0C020A62CA6922EAC4
:10106000030C354A954209D86A00B0FBF2F0013012
:101070006FF31F30042898BF04202DE0D4F808E057
:10108000BEF1000F08D0192204236A43B0FBF2F22C
:10109000013263F31F3206E005EB4502B0FBF2F2CA
:1010A00001326FF31F3212050BD0BEF1000F0AD0D0
:1010B00019226A43B0FBF2F00422013062F31F30C0
:1010C00008E0012008E005EB4502B0FBF2F001303A
:1010D0006FF31F3040F4004040EA0C00C86108681C
:1010E000D4E9072320F0C000104348F2FF32184330
:1010F000086088689043D4E903231843104388604C
:10110000C868D4E9052320F0FF0010431843C860E5
:10111000086840F00100086000202021206484F865
:101120003D10206384F83E00B0BD00BFA1860100E1
:1011300000093D0040420F00A08601007047704743
:1011400070477047B0B50E4C00682178ED4A904268
:1011500018BFB0BD91B1E0780021002501F006FD77
:10116000E078084901EBC01001F0B0FCE0780130F4
:10117000E070C0B2082804BF2570E570B0BD00BFA4
:1011800010000020D80000202DE9FE4399461646A5
:101190000F460446FFF77CFA054694F83D002028E8
:1011A0000BD100952046012219233F4901F08BFB0A
:1011B00018B994F83C00012804D10220C0B203B051
:1011C000BDE8F0830122DDE90A10DDF8308084F803
:1011D0003C202268136813F0010F02BF136843F02C
:1011E00001031360136823F40063136021224B464C
:1011F00084F83D20402284F83E200022226461626F
:10120000608539463246608D20858B48E0622046F5
:10121000CDE9008501F0CEFA08B10120CEE7208D9E
:1012200023E0204641462A4601F0E8FB28BB616ADC
:101230002268084610F8013B13616062238D581E36
:101240002085678D013F6785576917F0040F0CD023
:1012500000044FF0000008D048781061881C6062DC
:10126000981E2085618D013961850004D9D1204601
:1012700041462A4601F0FAFA40B1206C0428CCD14C
:101280002068016841F400710160C6E720680168C8
:1012900041F400710160202084F83D00002084F8B2
:1012A0003E0084F83C0089E7020010002DE9FF476A
:1012B000044600209A4616460F460390FFF7E8F9C9
:1012C000804694F83D00202867D1B148DDE90C1331
:1012D00046F2A8120068B0FBF2F0192250430390C6
:1012E000039801380390039800284BD02268906936
:1012F00010F0020FF4D194F83C0001284DD00120E9
:101300004FF0000C84F83C00106810F0010F02BF91
:10131000106840F001001060106820F40060106058
:10132000212084F83D00402084F83E00C4F840C0ED
:1013300061626385638D2385002B3F48E0626764AB
:10134000A664C4F84CA0C4F850C02BD0606BA8B3FE
:101350003A4D10324FF000098562394D0563C0F8EF
:101360002C90C0F83490FFF773F8A0B3202084F8D5
:101370003D0084F83E90206C40F01000206484F81A
:101380003C9043E000202021206384F83D1084F845
:101390003E00206C40F0200020640220C0B204B067
:1013A000BDE8F087202084F83D0084F83EC0206C22
:1013B00040F04000206484F83CC027E0202084F8FE
:1013C0003D00002084F83E00216C41F08001216442
:1013D00084F83C001AE02320394632465346CDE9D2
:1013E0000008204601F0E6F990B1606BFEF70CFFB3
:1013F000606B002181622068026822F480620260D2
:1014000021856185016821F0010101600120C5E7A6
:101410000020029021684A6902928A690292029A27
:1014200084F83C004A6842F480724A604A6842F498
:1014300000624A60B2E700BF0000FFFF5B240008C3
:10144000252400087FB5044620682E49884218BF2D
:101450007FBD2D48816841F400118160816801F4ED
:10146000001100910099416841F008014160416814
:1014700001F0080100910099416841F001014160CB
:10148000416801F0010100910099016841F00101FA
:1014900001606946006800F00100009000984FF478
:1014A0004070009012200190032003901748FFF72E
:1014B00007F8174800260168164A11430022016008
:1014C0001F20032100F076F81F2000F065F8124D70
:1014D0001248102180224FF4005385E8430028462B
:1014E000C5E90326C5E90566EB61FEF777FF102025
:1014F0000321002265636C6200F05CF8102000F0AC
:101500004BF87FBD0054004014100240000C014015
:101510000400014002000007DC1400206C000240BF
:10152000704770471948017882681144816070479C
:1015300080B50748016841F010010160032000F008
:1015400065F80F2000F006F800F024F8002080BDB8
:101550000020024070B50D4E04464FF47A71307889
:10156000B1FBF0F088490968B1FBF0F000F0FCFA3B
:1015700001250F2C08D838B94FF0FF302146002242
:10158000002500F017F87460284670BD04000020A4
:101590001400002070470000002808DB00F01F0145
:1015A0000122400902FA01F1014A42F82010704775
:1015B00000E100E0B0B5144C1A4D00F00F03B0F19B
:1015C000FF3FA3F104032B4403F10C03C8BF03192D
:1015D0002868C0F30220051DC41E80F00700072DF7
:1015E0004FF0010538BF0024042828BF042005FA65
:1015F00000F00138084005FA04F10F31A040114015
:10160000084300011870B0BD00E400E005494FF642
:10161000FF030A681A4060F30A2203481043086077
:10162000704700BF0CED00E00000FA052DE9F04125
:1016300004468846002C00F08880464F4FF48050C6
:10164000395801F0070141450AD2395821F0070104
:1016500041EA08013950385800F00700404574D17C
:10166000206810F0020F11D0410742BF796841F4A1
:10167000E0617960010742BF796841F460517960A7
:101680007968A26821F0F00111437960C00727D082
:101690006068012804D1396811F4003F08D154E092
:1016A0003968022802D1890102D44EE089074CD55D
:1016B000796821F0030108437860FEF7E9FF0646E8
:1016C00041F288357868616800F00C00B0EB810F5A
:1016D00006D0FEF7DDFF801BA842F3D9032035E0DA
:1016E0004FF48050395801F0070141450AD9395863
:1016F00021F0070141EA08013950385800F007008D
:10170000404522D1206810F0040F05D07968E268C6
:1017100021F4E06111437960000706D578682169FA
:1017200020F4605040EAC100786000F031F8796838
:10173000094AC1F30311515CC840134908600748C6
:101740000068FFF707FF002000E00120C0B2BDE8FD
:10175000F08100BF0010024038300008080000206F
:1017600009480A4A006818490968C1F30221515C16
:10177000C8407047FA48054A0068F7490968C1F34C
:10178000C221515CC8407047140000204830000856
:101790000D490A680D4802F00C03082B18BF70476A
:1017A000C2F3834C0AA312F4803F13F80C3002D129
:1017B0000C4858437047096809A25843C1F3404197
:1017C000515CB0FBF1F070470410024000127A0047
:1017D00002030405060708090A0B0C0D0E0F101072
:1017E0000102000000093D002DE9FE4F8246BAF1DA
:1017F000000F00F065819AF80000D64ED64FC00762
:1018000050D0386800F00C00042819D0386800F077
:101810000C00082803D1386810F4803F10D1DAF8A2
:101820000400A8B1B0F5803F06D03168B0F5A02F14
:1018300024D141F480203060306840F4803023E0CF
:10184000306810F4003F2DD0DAF8040050BB37E1C7
:10185000306820F480303060306820F480203060C0
:10186000FEF716FF0546306810F4003F1AD0FEF769
:101870000FFF411B03206429F5D922E121F48030B8
:101880003060306820F480203060FEF701FF0546AC
:10189000306810F4003F05D1FEF7FAFE401B6428C3
:1018A000F6D9EBE09AF800008007AC48834632D5C1
:1018B000386810F00C0F1DD0386800F00C000828B4
:1018C00004BF386810F4803F14D0DAF81000002804
:1018D00000F09580012059460860FEF7D9FE0546C4
:1018E000306810F0020F0ED1FEF7D2FE401B022826
:1018F000F6D9C3E0306810F0020F1CBFDAF8100010
:10190000012840F0DD803068DAF8141020F0F8008B
:1019100040EAC10030609AF80000000731D5DAF8DB
:10192000180080B101205946C1F88004FEF7B0FECE
:101930000546386A10F0020F16D1FEF7A9FE401BCB
:101940000228F6D99AE000205946C1F88004FEF733
:101950009FFE0546386A10F0020F12D0FEF798FE7F
:10196000401B0228F6D989E07D484FF4FA510068FF
:10197000B0FBF1F0029000BF0298411E00280291D6
:10198000F9D19AF80000400740F18180B86910F061
:10199000805F0BD1B8694FF0010840F08050B8610A
:1019A000B86900F080500190019801E04FF0000804
:1019B0006C48305810F4807F12D16A48315841F495
:1019C00080713150FEF764FE05466648305810F4C9
:1019D000807F05D1FEF75CFE401B6428F5D94DE001
:1019E000DAF80C00E8B1012805D0F969052830D1F2
:1019F00041F00400F861F86940F001002FE0002098
:101A000059460860FEF744FE0546306810F0020FA4
:101A10003FF481AFFEF73CFE411B03200229F4D9BD
:101A20004FE0F86920F00100F861F86920F0040047
:101A3000F861FEF72DFE054641F28839F86910F08D
:101A4000020F1DD0FEF724FE411B03204945F5D9A6
:101A500037E021F00100F861F86920F00400F86136
:101A6000FEF716FE054641F28834F86910F0020FC1
:101A700006D1FEF70DFE401BA042F6D9032020E060
:101A8000B8F1010F02BFB86920F08050B861DAF8F0
:101A90001C405946002C5AD0386800F00C00082829
:101AA00013D1012C0CD03868DAF8201000F4803201
:101AB0008A4205D1DAF8241000F47010884246D02A
:101AC0000120C0B203B0BDE8F08F00200866FEF729
:101AD000DFFD0546022C0AD1306810F0007F11D0DE
:101AE000FEF7D6FD411B03200229F5D9E9E730684E
:101AF00010F0007F2BD0FEF7CBFD411B0320022905
:101B0000F5D9DEE7DAF82000B0F5803F06D1396874
:101B1000DAF8082021F4003111433960396821F4E2
:101B200074110843DAF82410084338600120CBF818
:101B30006000FEF7ADFD0446306810F0007F06D16E
:101B4000FEF7A6FD011B03200229F5D9B9E7002005
:101B5000B7E700BF001002400410024000004242FC
:101B6000140000200060FEFF411E0020B0EB116F4A
:101B70001CBF01207047044AF023516003490B70D9
:101B8000072190601160704710E000E023ED00E055
:101B90007047704710B5044634B394F83D0028B937
:101BA000002084F83C00204600F020F80220211D8F
:101BB00084F83D00206801F04FF8012084F84600C9
:101BC00084F83E0084F83F0084F8400084F8410027
:101BD00084F8420084F8430084F8440084F8450007
:101BE00084F83D00002010BD012010BDE0B5016863
:101BF0002148B1F1804F25D0334A91422AD0334A4F
:101C000091422FD0944A914218BF8CBD4168002266
:101C100041F400614160416801F400610191019962
:101C2000016841F0010101600321006800F001003A
:101C3000019001981920FFF7BDFC1920BDE88C40E8
:101C4000FFF7AABC816841F001018160806800F063
:101C500001000EE0816841F002018160806800F0BF
:101C6000020006E0816841F004018160806800F0B4
:101C70000400019001988CBD1410024090F83D10B2
:101C800001291CBF01207047022180F83D10006827
:101C9000C168B0F1804F41F00101C16008D00A492C
:101CA00088421CBF6C49884202D00849884204D14E
:101CB000816801F00701062903D0016841F00101A4
:101CC00001600020704700BF000400400008004091
:101CD000704710B504462068016911F0020F1CBF5F
:101CE000C16811F0020F15D06FF0020101610121EE
:101CF0002177806910F0030F03D02046FFF7E8FF3B
:101D000005E0204600F09EF8204600F09CF80020F8
:101D100020772068016911F0040F1CBFC16811F021
:101D2000040F15D06FF00401016102212177806951
:101D300010F4407F03D02046FFF7CAFF05E020469D
:101D400000F080F8204600F07EF800202077206820
:101D5000016911F0080F1CBFC16811F0080F15D000
:101D60006FF00801016104212177C06910F0030FB1
:101D700003D02046FFF7ACFF05E0204600F062F8F4
:101D8000204600F060F8002020772068016911F0FB
:101D9000100F1CBFC16811F0100F15D06FF01001AB
:101DA000016108212177C06910F4407F03D02046EB
:101DB000FFF78EFF05E0204600F044F8204600F0D3
:101DC00042F8002020772068016911F0010F1CBF44
:101DD000C16811F0010F06D06FF0010101612046CA
:101DE00000F032F82068016911F0800F1CBFC16853
:101DF00011F0800F06D06FF0800101612046FFF7DF
:101E0000C7FE2068016911F0400F1CBFC16811F0C6
:101E1000400F06D06FF040010161204600F01EF82F
:101E20002068016911F0200F1CBFC16811F0200F5C
:101E300000D110BD6FF0200101612046BDE81040C7
:101E4000FFF7A7BE7047704700680349884208BF84
:101E500000F010BE704700BF002C014070477CB5F9
:101E6000044694F84200202820D10125F9B1F2B1AE
:101E70000125204600262563666301F011F8206BDA
:101E8000012814D1019620680168019141680191EF
:101E9000019900E0206850E8030F216840F010002D
:101EA00041E80302002AF5D1002500E00225E8B24E
:101EB00002B070BD0068184A904218BF704780B5E4
:101EC0001648DFF880C44FF0000E02680A44026032
:101ED0000CEB0201D0F8AC30013959600833D0F86E
:101EE000B4108B42C2F5806128BF00F10C03BEEB39
:101EF000912FC0F8AC3002BFC3F800C0C0F800E0BA
:101F00000022C4300CEB02014FF480621960FFF72D
:101F1000A6FFBDE8804070470038014074150020DE
:101F200070470000F8B5044620680168C26845693A
:101F300001F02F0602F02003202E05D123B1204608
:101F4000BDE8F84000F007BF5FEA017C08D005F06B
:101F5000010E12F4907F8EF0010559D1002D57D05B
:101F60001140CA06226B3DD5012A3BD100210091C8
:101F700001680091416800910099416911F0400F9A
:101F800040F0A580A18DE28DE38D002B00F00F8144
:101F9000891A89B209B90AE1206850E8030F22685A
:101FA00020F4907042E80303002BF5D1206850E83C
:101FB000050F226820F0010042E80503002BF5D14F
:101FC000202084F8420000202063206850E8030F9E
:101FD000226820F0100042E80303002BF5D1022014
:101FE0006063B8E00A0640F1BB8094F841102129F3
:101FF00040F0DD80A168B1F5805F04BF2169002950
:1020000000F0C780216A4A1C226209784160C7E05B
:10201000CE0706D012F480761EBF666C46F001062D
:10202000666401F00407012686EA97072F4302BF82
:10203000676C47F00207676401F0020786EA5706FB
:10204000354302BF656C45F00405656453EA0E0331
:1020500018BF0123BCF1000F05D5012B02BF636C33
:1020600043F008036364636C002B00F0A080114010
:10207000890603D5204600F06EFE20684069616C39
:1020800000F0400001F0080108437CD0204600F039
:102090003BFE2068416911F0400F01D16EE02068DD
:1020A00050E8050F216820F0400041E80502002AB1
:1020B000F5D1E06B002861D042494163FEF7A4F8F6
:1020C000002874D0E06B416BBDE8F8400847E26B34
:1020D00011684B689EB2002E69D0A18D8E4266D2E7
:1020E000E3859269202A01D130E0206850E8030F8F
:1020F000216820F4807041E80302002AF5D12068AD
:1021000050E8050F216820F0010041E80502002A8F
:10211000F5D1206850E8050F216820F0400041E823
:102120000502002AF5D1202084F842000020206317
:10213000206850E8030F216820F0100041E80302F6
:10214000002AF5D1E06BFEF740F8A18D0220606314
:10215000E08D081A81B22046BDE8F840FFF7AABE1C
:10216000490624D5C16821F04001C160202084F8CF
:1021700041002046BDE8F84000F0E6B82046BDE842
:10218000F840FFF7CDBE2046FFF7CAFE002060648E
:10219000F8BD216A31F8022B6FF35F2242602162A1
:1021A000E18C4FF6FF7201391142E18400D0F8BD95
:1021B000C16821F08001C160C16841F04001C16087
:1021C000F8BD00BFFD2C000810B504464CB394F8D0
:1021D000410028B9002084F84000204600F024F88F
:1021E000242084F841002068C16821F40051C160B6
:1021F000204600F015FE2068016921F4904101613C
:10220000416921F02A014161C16841F40051C16076
:1022100000202021606484F8411084F8421060633B
:1022200010BD012010BD0000F0B585B0204C006845
:1022300004F54051884238D11E4801220126016828
:1022400041F004010160016801F00401019101996C
:10225000016841F4804101604FF4C061006800F4FE
:102260008040019001982046FEF70CFA022001AD53
:10227000002702904FF40070294601900320039735
:1022800004902046FEF71CF94FF48060CDE90276F9
:10229000294601902046FEF713F92520002100224F
:1022A000FFF788F92520FFF777F905B0F0BD00BFEB
:1022B000000801401810024010B590F84230202B61
:1022C00007D1012431B12AB10024046300F0E8FDF4
:1022D00000E00224E0B210BD00681849884218BF2F
:1022E000704780B51648DFF864CC036803F5806258
:1022F0006344026003F2FF33D0F8AC104B6001F18D
:102300000803D0F8B4108B420CF5406128BF00F1EF
:102310000C03C0F8AC30D3F804E08E4502BFC3F81C
:1023200000C000220260C4300CEB02014FF4806256
:102330001960FFF7C1FFBDE88040704700380140D9
:1023400074150020D80800207047FEE70148FEF70A
:10235000A7B900BF201500201CB5002146F2A81225
:1023600001912F49406A90F83DC00968B1FBF2F134
:10237000232251430191019941B101990139019100
:102380000168096811F4007FF5D103E0016C41F0A8
:1023900020010164446B0CB10021A162816B09B181
:1023A00000228A6202684FF0000E002C136823F4AA
:1023B00080631360A0F82AE001D0C4F834E009B1CA
:1023C00000234B63116821F00101116090F83D106A
:1023D000602909D1202180F83D10002180F83E10AD
:1023E0000164FEF75BF91CBD0CF0280128290DD112
:1023F000116841F001011160116841F480611160C0
:1024000000210163282180F83D1005E0202180F89B
:102410003D10002180F83E10FEF7D6FD1CBD00BF28
:1024200014000020406A416B09B100228A62816B6E
:1024300009B100228A6201680A6822F480620A6097
:1024400000212022418580F83D2080F83E10016C5B
:1024500041F010010164FEF7B7BD10B5446A94F86D
:102460003D2094F83EE0D4F82CC02068416821F467
:1024700040714160616B09B100238B62A16B09B1AE
:1024800000238B6202F02101212906D0BEF1200F2A
:1024900004BF02F02201222921D141682A2A21F415
:1024A000006141604FF0000060850AD0292A10D1F8
:1024B00021202063282084F83D002046FFF731F8D2
:1024C00007E022202063282084F83D002046FFF703
:1024D00027F82068416841F44071416010BD94F8CC
:1024E0003E100029FAD0618D012902BF016821F454
:1024F00080610160BCF12A4F416821F44071416064
:1025000008D01CF5803F18BFBCF1200F02D0BCF1F1
:10251000080F03D1016841F400710160416821F4A2
:1025200080514160416821F4006141600020608574
:10253000216C21B12046BDE81040FEF745BD2021A9
:1025400084F83D1094F83E1084F83E00402906D1EE
:10255000002020632046BDE81040FEF7F2BD1220A7
:1025600020632046BDE81040FEF7E9BD10B50446E3
:1025700094F83D1094F83E00402818BF102807D169
:10258000222905D12068026822F4006202600BE073
:1025900001F02800282806D100202063282084F894
:1025A0003D0020680EE020684268602908D012F4DF
:1025B000006101BF202184F83D10002184F83E1005
:1025C00000212163416811F4006F1BD194F83D1084
:1025D00060293BD1202184F83D100021216441690C
:1025E00011F0400F06D00069616A0870606A01301E
:1025F00060622068016821F0010101602046FEF759
:102600004DF841E0416821F400614160606B90F851
:102610002110012928D1A06B2C494163FDF7F4FD5D
:1026200090B32068416911F0400F06D00069616ADB
:102630000870606A013060622068016821F0010161
:102640000160202084F83D00A06B1BE0416911F07F
:10265000400F05D00069616A0870606A01306062ED
:102660002046FEF7B1FC0FE018494163FDF7CCFDB1
:1026700050B12068016821F001010160202084F838
:102680003D00606B416B8847206C10F00F0F1FBF3F
:102690002068416821F4E061416094F83D10206CAD
:1026A000282918BF10BD10F004000DD008482021C3
:1026B000E0620020206384F83D1084F83E0020464C
:1026C000BDE81040FEF73ABD10BD00BF5923000819
:1026D0000000FFFF014600200A68536913F4806F71
:1026E00008BF7047C44B53612022086381F83D2026
:1026F00081F83E000A6C42F004020A6481F83C0052
:102700000120704790F83D10026D3AB1026D012A28
:1027100015D1816C0268C9B211611AE0C16C826C7A
:10272000012918BF120A03680129D2B21A614FF0B9
:10273000010208BF0222016D114401657047026D5C
:10274000022A0AD1222910D101680A6842F4807253
:102750000A60016D0131016570470068416911F03F
:10276000800F1CBF002101617047428D21290AD1D1
:102770004AB1426A016812F8013B0B614262418D25
:10278000013941857047428D212908BF002AEBD1CC
:1027900001684A6822F4E0624A600A6842F4007202
:1027A0000A6000212022016380F83D2080F83E105D
:1027B000FEF7C8BC2DE9FE4304460F460A9D0B9E5A
:1027C00099469046002220682B46016841F48071AA
:1027D000016020464FF00111009600F074F8216866
:1027E00040B1086810F4807F1CBF4FF40070206473
:1027F00003200AE007F0FE002A463346086120461F
:10280000194900F0ABF820B10120C0B203B0BDE817
:10281000F0830020324602902068416902912946E7
:10282000806902900298204600F0E8F840B1206CE0
:102830000428E9D12068016841F400710160E3E7F0
:10284000B9F1010F0AD020684FEA18213246016120
:102850002046294600F0D2F80028E8D120685FFA27
:1028600088F101610020D0E702000100F8B50E46B2
:1028700015460446771C2068406910F0040F1FD1EC
:102880002046FFF727FFC8B9002FF4D0FDF700FF5F
:1028900016B1401BB042EED92068406910F0040F19
:1028A000E9D100202021206384F83D1084F83E0007
:1028B000216C41F02001216484F83C00012000E0FB
:1028C000002001B0F0BD2DE9F047DDF820909846DA
:1028D000164604468FB201F47F0508F1010A20680C
:1028E000B5F5803F00F1180108BF00F11401086838
:1028F0003840C01BB0FA80F04009B0421CBF002035
:10290000BDE8F087BAF1000FE9D0FDF7C1FEB8F1DC
:10291000000F03D0A0EB09004045E0D92068B5F5D1
:10292000803F00F1180108BF00F114010868384029
:10293000C01BB0FA80F04009B042D0D10020202165
:10294000206384F83D1084F83E00216C41F02001A2
:10295000216484F83C000120BDE8F0872DE9F843AC
:102960009146984604468FB201F47F0509F10106AD
:102970002068B5F5803F00F114010A4618BF00F148
:10298000180212683A40BA421CD0096811F4806FEC
:102990001AD1002EECD0FDF77BFEB9F1000F03D069
:1029A000A0EB08004845E3D92068B5F5803F00F169
:1029B000180108BF00F1140108683840B842D7D0A8
:1029C000202008E0002013E0016841F4007101605C
:1029D00009494161042000212022216384F83D201F
:1029E00084F83E10226C10432064012084F83C10CF
:1029F00001B0BDE8F08300BFFFFBFFFFF8B50E4656
:102A000015460446771C2068406910F0800F1FD1DE
:102A10002046FFF75FFEC8B9002FF4D0FDF738FE5F
:102A200016B1401BB042EED92068406910F0800F0B
:102A3000E9D100202021206384F83D1084F83E0075
:102A4000216C41F02001216484F83C00012000E069
:102A5000002001B0F0BD0000224803490160034995
:102A60004160FEF7B3BA00BF00540040801A060070
:102A7000FEE7FEE7B0B50B4D287800B1B0BD3A4C8B
:102A80005C494FF480622046FDF74CFB0120002199
:102A90002870002000F06AF82046BDE8B04000F041
:102AA00015B800BF10000020F8B58DF80F004FF4E6
:102AB0007A7001210DF10F020123CDE9002102906E
:102AC000084878210022FEF75FFB8FBDE0B580212A
:102AD00040220123CDE9000102487821FEF7E6FB00
:102AE0008CBD00BF2015002010B5FFF7B5FF274CA7
:102AF000AE20A047D520A0478020A047A820A0470F
:102B00003F20A047D320A0470020A0474020A04757
:102B10000020A0471020A047A120A047C820A04720
:102B2000DA20A0471220A0478120A047FF20A0471D
:102B3000D920A047FF20A047DB20A0473020A04796
:102B4000A420A047A620A0478D20A0471420A0477E
:102B5000AF20A04704484FF48061FDF7FCFABDE8C0
:102B60001040FFF787BF00BFD8000020B0B5074D69
:102B700040F0B0000C46A847102040EA1410A847C7
:102B800004F00F002946BDE8B0400847A92A000814
:102B90004300A2F12000164A112902EB001C154A3D
:102BA00002EBC31212D202EBC1010022A1F5847123
:102BB000082A08BF70470CEB02001CF80230007AAC
:102BC0008B548B18013283F88000F1E702EBC101CE
:102BD0000022883909E00CEB02001CF80230007A70
:102BE0008B548B18013283F88000082AF3D1704788
:102BF00050300008D804002070477047FEF792BCA0
:102C0000704780B590B0002001214FF4E012089089
:102C100006914FF480310791CDE90E1202214FF455
:102C2000806203900D91CDE904200F20CDE90101D0
:102C300006A8FEF7D9FD01A80221FEF7F7FC10B0A7
:102C400080BD0000E848FFF744B800BF0148FFF727
:102C500040B800BF9000002010B50368264AB0F1CC
:102C6000804F08D0164CA0421CBF234CA04202D07B
:102C7000144CA04203D14C6823F070032343B0F1FD
:102C8000804F08D00E4CA0421CBF1B4CA04202D06B
:102C90000C4CA04203D1CC6823F4407323434C690D
:102CA00023F08003904243EA040303608B68C3620D
:102CB0000B68836204BF096911630121416110BD82
:102CC000000400400008004010B50A4C0A4B0138CF
:102CD000013944F81C3F0023C4E90113C4E903038C
:102CE0002046C4E90523FEF755FF20686FF0010177
:102CF000016110BD20000020002C0140406A00212D
:102D0000C185C184FFF70CB9016851E8031F02684F
:102D100021F4907142E80313002BF5D1016851E8CA
:102D2000051F026821F0010142E80513002BF5D1CF
:102D3000016B012909D1016851E8031F026821F0E4
:102D4000100142E80313002BF5D1202180F8421036
:102D500000210163704790F84210222918BF704784
:102D60008368B3F5805F06D1026900F12801A2B142
:102D7000D1F800C008E00146002B51F828CF01D15E
:102D800003690BB17F2300E0FF23026852681A40F9
:102D900001238CF800200A6806E00368826A5B68F9
:102DA0006FF35F23138002231A440A604FF6FF7209
:102DB000C18D01391142C18500D070470168CA68D0
:102DC00022F02002CA60CA6822F48072CA604A698E
:102DD00022F001024A61202280F842200022426350
:102DE000036B012B18BFFFF777BA026351E8031F8B
:102DF000026821F0100142E803130168002BF5D1AD
:102E00000A6812F0100F08D081B0002200920A6800
:102E1000009249680091009901B0818DFFF74AB88E
:102E200010B5044620680169E26821F4405111435D
:102E300041F20C620161D4F808C0D4E904E3C1682E
:102E400091434EEA0C021A431143C1604169A269E1
:102E500021F44071114341612D49884202D0FEF7AF
:102E60007FFC01E0FEF786FC19214843D4E90012FB
:102E70006FF063049200B0FBF2F06422B0FBF2F357
:102E800003FB0400322404EB0010B0FBF2F000F06E
:102E9000F00200F00F0002EB03121043886010BD37
:102EA000816200218285C2854164222180F842101E
:102EB0000168006918B1C86840F48070C86048694A
:102EC00040F001004861C86840F02000C860002060
:102ED000704700000D48C430FFF724B810B50B4C04
:102EE0000B4A0C23214641F8C42F0022C4E93202C8
:102EF0000846C4E93422C4E93632C4F8E020FFF7BA
:102F000063F92046BDE8104000F004B874150020B5
:102F10000038014000F10C01002200F15C03C0E91F
:102F20002B1100F15401C0F8B41008490260C160CF
:102F3000C0E92E3300F1A403C0F8C0304260044A57
:102F4000C265C4304FF48062FEF789BFD808002004
:102F5000D8140020FEE7000010B504460A2C0BD15F
:102F600013490122887800F00300013088704A700C
:102F70000021FFF7FBFD19E00D4A092C517805D11E
:102F8000C81C00F00F00013050700FE0102907D965
:102F900001215170907800F003000130907000E042
:102FA00090784B1C5370E2B2FFF7F2FD204610BD43
:102FB0001000002080B5FEF7BBFAFFF722FE4FF4A9
:102FC00034704FF47A710022FFF77EFE0648FEF758
:102FD00055FE4FF41650FFF781FFFFF785FD03A064
:102FE00000F018F8FEE700BF3C00002048656C6C5C
:102FF0006F00000002E008C8121F08C1002AFAD1C1
:1030000070477047002001E001C1121F002AFBD168
:103010007047000010B5044601E0FFF79DFF14F86B
:10302000010B04490028F8D1BDE810400A20FFF741
:1030300093BF00000000002000000000000000001E
:10304000010203040607080900000000010203044E
:103050000000000000000000000000000000000070
:10306000000000F800000000000000333000000005
:1030700000100C06100C060000000000000000000C
:1030800040C07840C0784000043F04043F0404007E
:10309000007088FC08300000001820FF211E00008E
:1030A000F008F000E018000000211C031E211E00A3
:1030B00000F00888700000001E2123241927211029
:1030C00010160E00000000000000000000000000CC
:1030D000000000E018040200000000071820400073
:1030E00000020418E0000000004020180700000063
:1030F000404080F0804040000202010F01020200C7
:10310000000000F0000000000101011F01010100AA
:10311000000000000000000080B07000000000000F
:103120000000000000000000000101010101010198
:10313000000000000000000000303000000000002F
:103140000000000080601804006018060100000004
:1031500000E010080810E000000F102020100F0001
:10316000001010F8000000000020203F2020000088
:1031700000700808088870000030282422213000E0
:1031800000300888884830000018202020110E00E8
:103190000000C02010F8000000070424243F240091
:1031A00000F80888880808000019212020110E0066
:1031B00000E0108888180000000F112020110E0078
:1031C00000380808C83808000000003F0000000070
:1031D0000070880808887000001C222121221C0031
:1031E00000E010080810E0000000312222110F005A
:1031F000000000C0C00000000000003030000000EF
:10320000000000800000000000008060000000005E
:103210000000804020100800000102040810200077
:1032200040404040404040000404040404040400C2
:103230000008102040800000002010080402010057
:10324000007048080808F000000000303601000057
:10325000C030C828E810E0000718272423140B000A
:103260000000C038E0000000203C23020227382084
:1032700008F8888888700000203F202020110E0068
:10328000C03008080808380007182020201008005F
:1032900008F808080810E000203F202020100F0048
:1032A00008F88888E8081000203F20202320180014
:1032B00008F88888E8081000203F2000030000007C
:1032C000C03008080838000007182020221E02001D
:1032D00008F808000008F808203F210101213F20DC
:1032E000000808F8080800000020203F2020000007
:1032F00000000808F8080800C08080807F000000F7
:1033000008F888C028180800203F2001263820002F
:1033100008F8080000000000203F20202020300096
:1033200008F8F800F8F80800203F003F003F2000B0
:1033300008F830C00008F808203F200007183F00B8
:10334000E01008080810E0000F10202020100F00E7
:1033500008F808080808F000203F210101010000DA
:10336000E01008080810E0000F18242438504F001F
:1033700008F8888888887000203F2000030C3020DF
:1033800000708808080838000038202121221C001D
:10339000180808F8080818000000203F2000000066
:1033A00008F808000008F808001F202020201F004F
:1033B0000878880000C83808000007380E010000AF
:1033C000F80800F80008F800033C0700073C030079
:1033D000081868808068180820302C03032C3020DF
:1033E0000838C800C83808000000203F200000004E
:1033F00010080808C83808002038262120201800A6
:10340000000000FE020202000000007F4040400079
:10341000000C30C000000000000000010638C000B1
:1034200000020202FE000000004040407F00000059
:10343000000004020202040000000000000000007E
:10344000000000000000000080808080808080807C
:103450000002020400000000000000000000000064
:1034600000008080808000000019242222223F205A
:1034700008F8008080000000003F112020110E009D
:103480000000008080800000000E1120202011002C
:10349000000000808088F800000E112020103F20DE
:1034A0000000808080800000001F22222222130062
:1034B000008080F0888888180020203F20200000AD
:1034C0000000808080808000006B94949493600062
:1034D00008F8008080800000203F210000203F206D
:1034E00000809898000000000020203F202000006D
:1034F000000000809898000000C08080807F00005D
:1035000008F8000080808000203F24022D30200039
:10351000000808F8000000000020203F20200000E4
:103520008080808080808000203F20003F20003FFE
:103530008080008080800000203F210000203F200C
:103540000000808080800000001F202020201F00BD
:10355000808000808000000080FFA12020110E00EC
:103560000000008080808000000E112020A0FF80DD
:10357000808080008080800020203F21200001008A
:1035800000008080808080000033242424241900DF
:10359000008080E0808000000000001F20200000EC
:1035A0008080000000808000001F202020103F202D
:1035B000808080000080808000010E3008060100BD
:1035C00080800080008080800F300C030C300F0062
:1035D00000808000808080000020312E0E3120008D
:1035E000808080000080808080818E7018060100BD
:1035F00000808080808080000021302C22213000DB
:1036000000000000807C020200000000003F4040FB
:1036100000000000FF00000000000000FF000000AC
:103620000002027C800000000040403F00000000DB
:103630000006010102020404000000000000000076
:10364000603600080000002020000000F42F000871
:103650008036000820000020601A000004300008B6
:103660000000000001000000100000000000000049
:10367000000101010024F40000000000000000002F
:04000005080000ED02
:00000001FF
